S02B0000786D6567615F617474696E793431325F73696D5F6D6964695F636F6E74726F6C6C65725F666C6173E1
S11300000C94FE000C9416010C9416010C94160129
S11300100C9416010C9416010C9416010C94160100
S11300200C9416010C9416010C9416010C941601F0
S11300300C9416010C9416010C945B080C94160194
S11300400C9416010C9416010C9416010C941601D0
S11300500C9472080C9416010C9416010C9416015D
S11300600C9416010C9416010C9416010C941601B0
S11300700C9416010C9416010C9416010C941601A0
S11300800C9416010C9416010C9416010C94160190
S11300900C9416010C9416010C9416010C94160180
S11300A00C9416010C9416010C9416010C94160170
S11300B00C9416010C9416010C9416010C94160160
S11300C00C9416010C9416010C9416010C94160150
S11300D00C9416010C9416010C9416010C94160140
S11300E00C9416010C9416010C9416010C94160130
S11300F00C9416010C9416010C9416010C94160120
S11301000C9416010C9416010C9416010C9416010F
S11301100C9416010C9416010C9416010C941601FF
S11301200C9416010C9416010C9416010C941601EF
S11301300C9416010C9416010C9416010C941601DF
S11301400C9416010C9416010C9416010C941601CF
S11301500C9416010C9416010C9416010C941601BF
S11301600C9416010C9416010C9416010C941601AF
S11301700C9416010C9416010C9416010C9416019F
S11301800C9416010C9416010C9416010C9416018F
S11301900C9416010C9416010C9416010C9416017F
S11301A00C9416010C9416010C9416010C9416016F
S11301B00C9416010C9416010C9416010C9416015F
S11301C00C9416010C9416010C9416010C9416014F
S11301D00C9416010C9416010C9416010C9416013F
S11301E00C9416010C9416010C9416010C9416012F
S11301F00C9416010C9416010C94160111241FBEC4
S1130200CFEFCDBFDFE3DEBF00E00CBF18BE19BEE9
S11302101ABE1BBE20E2A0E0B0E201C01D92AC38C1
S1130220B207E1F70E9435060C9479090C9400009A
S11302309091A10995FFFCCF8093A00908958CEFBC
S11302400E9418011092000808958AEF0E94180174
S11302508091072090910820892F0E941801809195
S11302600720909108200E94180183E080930008E1
S113027008958093C3088091C20887FFFCCF8091C2
S1130280C308089580E00C943901CF93DF9300D024
S11302901F92CDB7DEB769837A838B839C83862FC5
S11302A00E9439018A810E9439018B810E9439019F
S11302B02496CDBFDEBFDF91CF9108951F93CF93D6
S11302C0DF93C0E4D6E010E11D831E8385E00E9425
S11302D039010E9442011D83DF91CF911F9108953E
S11302E00E945E0180FDFCCF0895CF92DF92EF92D1
S11302F0FF921F93CF93DF931F921F92CDB7DEB768
S11303006B017C01142F29835A830E94700180E1C0
S1130310809345068093460683E00E943901C70115
S1130320B6010E944501E12E5A81F52E2981120F52
S11303300E944201F70181937F011E13F9CF80E1EE
S1130340809345060F900F90DF91CF911F91FF90FE
S1130350EF90DF90CF900895CF93DF931F921F9279
S1130360CDB7DEB722E0AE014F5F5F4F64E070E1CE
S113037080E090E00E947501898190E0982F8827A1
S11303802A81820F911D8093092090930A200F9057
S11303900F90DF91CF910895CF92DF92EF92FF9269
S11303A00F931F93CF93DF9300D01F92CDB7DEB787
S11303B08091092090910A20880F991F880F991F16
S11303C0A0E0B0E08A5F9F4EAF4FBF4F8093032001
S11303D090930420A0930520B093062080910720D9
S11303E090910820892BF1F56091032070910420ED
S11303F0809105209091062022E0AE014F5F5F4F6F
S11304000E9475018091032090910420A091052001
S1130410B09106200296A11DB11D2A81820F911D63
S1130420A11DB11D498150E060E070E0762F652F79
S1130430542F4427840F951FA61FB71F80930320B2
S113044090930420A0930520B09306202496CDBF5A
S1130450DEBFDF91CF911F910F91FF90EF90DF905E
S1130460CF9008958091092090910A20892B09F456
S1130470BBCF2091072030910820809109209091D2
S11304800A202817390748F08091092090910A2002
S11304900197809307209093082000E010E0F6E095
S11304A0CF2EF0E1DF2EE12CF12C809107209091EA
S11304B008200817190708F097CF24E0AE014F5F12
S11304C05F4FC701B6010E94750184E0C80ED11CBC
S11304D0E11CF11C8091032090910420A09105203F
S11304E0B09106202C81AC01BD01420F511D611D4C
S11304F0711D9981892F90E0A0E0B0E0B82FAA2760
S113050099278827840F951FA61FB71F4A8150E09B
S113051060E070E0BA0155274427840F951FA61F99
S1130520B71F4B8150E060E070E0762F652F542FA9
S11305304427840F951FA61FB71F80930320909311
S11305400420A0930520B09306200F5F1F4FADCF6A
S1130550CF93DF931F921F92CDB7DEB78091032014
S113056090910420A0910520B0910620BC01CD01FA
S1130570665F7F4F8F4F9F4F22E0AE014F5F5F4F0B
S11305800E9475018A81809302200F900F90DF9161
S1130590CF910895CF93DF931F921F92CDB7DEB70B
S11305A08091032090910420A0910520B091062011
S11305B0BC01CD01645F7F4F8F4F9F4F22E0AE019E
S11305C04F5F5F4F0E94750149812A81842F90E01B
S11305D0982F882730E0820F931F80930B209093ED
S11305E00C2080910B2090910C2097FF10C0642F59
S11305F0772761950CF47095629FA001639F500D5D
S1130600729F500D112440930B2050930C200F9097
S11306100F90DF91CF9108952F923F924F925F9266
S11306206F927F928F929F92AF92BF92CF92DF92FE
S1130630EF92FF920F931F93CF93DF93CDB7DEB763
S11306402B97CDBFDEBF282F30E029873A873FE0C4
S1130650839FF0011124E35FFF4D108611861286FB
S113066013864F01CE0101968D839E838C5F8B8709
S11306703896EF83F8873401FCE06F0E711C1A8200
S11306801B821C820E9442018983F40140815181B2
S1130690628173814F5F5F4F6F4F7F4F4083518300
S11306A06283738387FF33C00E9442018A83F4010B
S11306B040815181628173814F5F5F4F6F4F7F4FE4
S11306C0408351836283738387FF21C00E94420168
S11306D08B83F40140815181628173814F5F5F4F4D
S11306E06F4F7F4F408351836283738387FF0FC0B3
S11306F00E9442018C83F40180819181A281B381A3
S11307000196A11DB11D80839183A283B383FE0151
S1130710319680E090E0DC0107E0880F991FAA1F62
S1130720BB1F0A95D1F7219127FF09C02F77820FAC
S1130730911DA11DB11D2B852E13EECF06C01C01EA
S11307402D01220E311C411C511CEF81F885808142
S11307509181A281B381820D931DA41DB51D808357
S11307609183A283B3830E944201F3018083F40145
S113077080819181A281B3810196A11DB11D8083E5
S11307809183A283B383F3018081807F803941F018
S11307908081807F803821F08081807F803EF9F4E1
S11307A00E9442019FE029853A85929F8001939F90
S11307B0100D1124035F1F4DF80185870E9442012B
S11307C0F801868780819181A281B3810296A11D5F
S11307D0B11D80839183A283B3838FEF1FC1F30183
S11307E08081807F803A21F08081807F803B81F40A
S11307F00E9442010E944201F40180819181A28100
S1130800B3810296A11DB11D80839183A283B3831A
S1130810F3018081807F803C21F08081807F803D56
S113082079F40E944201F40180819181A281B38113
S11308300196A11DB11D80839183A283B3831FCF31
S1130840F30180818F3F09F01ACF0E94420189830E
S1130850F40140815181628173814F5F5F4F6F4F1B
S11308607F4F40835183628373838F3209F4D6C0F0
S113087058F48A3020F48130C8F481E0BAC0803260
S113088009F0B6C082E0B5C0883509F49DC038F4DB
S11308908135E1F0843509F0ABC086E0AAC0893522
S11308A009F494C0873F09F493C0A2C00E94420196
S11308B0F40140815181628173814F5F5F4F6F4FBB
S11308C07F4F408351836283738393C00E944201AC
S11308D00E944201182F89830E944201082F8A83B3
S11308E00E944201282F8B83812F90E0A0E0B0E08A
S11308F0DC0199278827402F50E060E070E0762FD4
S1130900652F542F4427840F951FA61FB71F820FEE
S1130910911DA11DB11D8093852090938620A093E5
S11309208720B093882060918520709186208091E3
S113093087209091882020E03DE241E351E00E942D
S1130940D708F0E4AF2EA2E4BA2EBFE0CB2ED12C10
S1130950E12CF12C00E010E00E940409C901DA0145
S11309608093852090938620A0938720B09388203D
S113097060918520709186208091872090918820B5
S113098020910B2030910C20032E000C440B550BAE
S11309900E94B508DA01C90112E0B695A7959795AA
S11309A087951A95D1F78093260890932708F40128
S11309B080819181A281B3810496A11DB11D8083A0
S11309C09183A283B38314C085E013C083E011C074
S11309D0F40180819181A281B3810196A11DB11D91
S11309E080839183A283B3830E944201873F81F76E
S11309F080E0F4014081518162817381480F511D6F
S1130A00611D711D4083518362837383182F1123E9
S1130A1009F435CE0E9442011150F9CF2B96CDBF77
S1130A20DEBFDF91CF911F910F91FF90EF90DF9088
S1130A30CF90BF90AF909F908F907F906F905F907A
S1130A404F903F902F9008950F931F93CF93DF9370
S1130A5000D01F92CDB7DEB78C0149835A836B83D4
S1130A607C830E94700180E1809345068093460652
S1130A7083E00E94390149815A816B817C81CB01D9
S1130A80BA010E944501F80180810E940C038F3F46
S1130A9021F4F80180818F5F808380E18093450693
S1130AA080E02496CDBFDEBFDF91CF911F910F91DF
S1130AB008954F925F926F927F928F929F92AF921E
S1130AC0BF92CF92DF92EF92FF920F931F93CF9337
S1130AD0DF93CDB7DEB72597CDBFDEBF1D82C090B3
S1130AE00320D0900420E0900520F090062082E1BD
S1130AF0C80ED11CE11CF11C10E00FE09091022003
S1130B008D81191708F068C0883008F065C0019F0E
S1130B10F0011124E35FFF4D1486089FF0011124B6
S1130B20E35FFF4D158616861082118212821382AE
S1130B30148215821682178224E0AE014F5F5F4F44
S1130B40C701B6010E9475018B80912CA12CB12C98
S1130B50BA2CA92C982C88244C80512C612C712CF3
S1130B6084E0480E511C611C711C9981892F90E00E
S1130B70A0E0B0E0B82FAA2799278827840D951DF7
S1130B80A61DB71D4A80512C612C712C32015524AD
S1130B904424480E591E6A1E7B1E84E0C80ED11CD4
S1130BA0E11CF11CED810E9FF0011124E35FFF4D68
S1130BB0C482D582E682F782B701A601CE010596EA
S1130BC00E942405840C951CA61CB71CC80CD91CB7
S1130BD0EA1CFB1C1F5F92CF2596CDBFDEBFDF91C1
S1130BE0CF911F910F91FF90EF90DF90CF90BF9026
S1130BF0AF909F908F907F906F905F904F900895EB
S1130C0080930720909308200E94CC010E94A802A0
S1130C100E94CA020E9459058093022080910220FA
S1130C2080930120089580910720909108200196D7
S1130C30809307209093082020910720309108206A
S1130C408091092090910A202817390720F01092EA
S1130C500720109208200E941F0180910720909184
S1130C6008200E9400060C942501F89481E08093EA
S1130C7050008091510080FFFCCF8AE080935500A2
S1130C80809150008061809350008091510084FFD6
S1130C90FCCF88ED84BF34E03093400080EB809338
S1130CA0410680E48093420681ED8093C00828E0E9
S1130CB02093610681E58093A6091092A7098CE030
S1130CC08093A40983E08093A5099091A200976082
S1130CD09093A200109200088093060849E859E016
S1130CE04093260850932708309340088093460881
S1130CF088EA91E6809366089093670884EA809373
S1130D000102C0E2C093020287E08093040281E002
S1130D1080932802209329028093000278940E94F1
S1130D20AC018091092090910A20880F991F880FA7
S1130D30991F8A5F9F4EA0E0B0E0809303209093B8
S1130D400420A0930520B0930620C09301068FEFE2
S1130D509FEF809307209093082030E1932E4FE07B
S1130D60842E80910020882309F4C0C000E010E0A4
S1130D708091022090E00817190708F0B5C00E947E
S1130D807001909245069092460683E00E943901D4
S1130D90809EE001819ED00D1124C35FDF4D8C81C4
S1130DA09D81AE81BF81488159816A817B816A01BD
S1130DB07B01C80ED91EEA1EFB1EC701B6010E94A4
S1130DC045017E018CE0E80EF11C5E01E8E0AE0E08
S1130DD0B11C6E01FDE0CF0ED11C2E96F70180816F
S1130DE0882309F442C0F50180819181A281B381F5
S1130DF0892B8A2B8B2BC9F5F7017080F601608053
S1130E00F70180810E941801F60180810E94180177
S1130E1088810E941801802F0E940C03882329F1E5
S1130E208F32F1F0872D807F8039C1F6F701808100
S1130E30807F803899F6F50180819181A281B38108
S1130E40892B8A2B8B2B51F6F60180816812C6CF31
S1130E50802F0E940C03882341F08F3209F0BECF0B
S1130E608091012081508093012090924506809EBC
S1130E70F001819EF00D1124E35FFF4D8085918583
S1130E80A285B385892B8A2B8B2B59F0808591857C
S1130E90A285B3850197A109B10980879187A287AB
S1130EA0B3878091012081111CC0109200080E9418
S1130EB01F0180918B20869586958370813049F43B
S1130EC080910720909108200E9400060E9425012D
S1130ED008C080918B2086958695837011F40E94BA
S1130EE013060F5F1F4F44CF1092002080918A2079
S1130EF0843608F444C080918B2086FD74C08091B0
S1130F008B208E7F80938B2080918B2080648093B4
S1130F108B2080918B20869586958370823021F476
S1130F2080918B20837F1EC080918B20869586952F
S1130F308370813049F480918B20837F80938B2050
S1130F4080918B2088600EC080918B208695869539
S1130F50837051F480918B20837F80938B208091C8
S1130F608B20846080938B208DEF0E9418018091E8
S1130F708B208695869583700E94180134C08091D9
S1130F808A20863040F080918920843620F4809134
S1130F908B20816026C080918A20811124C0809199
S1130FA08B2080FF16C080918B2086FD12C080911B
S1130FB08B2087FF0CC080918B208F7780938B20B0
S1130FC08BEF0E94180183E08093000802C00E9406
S1130FD0130680918B208E7F80938B2080918B20B1
S1130FE08F7B80938B2080918920843688F0809138
S1130FF08B2087FDB6CE80918B20806880938B20D8
S113100080918B208D7F80938B200E941F01A9CE1D
S113101080918920863040F080918920843620F4A4
S113102080918B20826044C080918920811199CE67
S113103080918B2081FF39C080918B2087FF0CC069
S113104080918B208F7780938B208BEF0E941801E7
S113105083E08093000829C08091072090910820A4
S1131060892B59F020910720309108208091092084
S113107090910A202817390728F08091092090912F
S11310800A2004C080910720909108200197809342
S11310900720909308200E941F01809107209091BF
S11310A008200E9400060E94250180918B208D7FDC
S11310B080938B2056CE1F920F920FB60F9211245D
S11310C008B60F9218BE8F9380E2809307068FEFC5
S11310D0809300208F910F9008BE0F900FBE0F9049
S11310E01F9018951F920F920FB60F92112408B6F5
S11310F00F9218BE8F939F9380E28093070680918E
S113110028028068809328028091280287FDFCCF02
S113111080912C0290912D02982F8957813850F498
S113112080918A208F3FB1F080918A208F5F8093D5
S11311308A2010C09A3F60F0809189208F3F29F067
S1131140809189208F5F8093892010928A2004C027
S113115010928A20109289209F918F910F9008BE3F
S11311600F900FBE0F901F901895A1E21A2EAA1B84
S1131170BB1BFD010DC0AA1FBB1FEE1FFF1FA21743
S1131180B307E407F50720F0A21BB30BE40BF50B40
S1131190661F771F881F991F1A9469F760957095C9
S11311A0809590959B01AC01BD01CF010895E89411
S11311B0DF93CF93FC01DB010E9461097F936F935E
S11311C0E9019A01AC01BF93AF933F932F93DF01E1
S11311D00E94610926F46C1B7D0B820B930B9E010C
S11311E0EB01FC010E947009AF91BF912F913F91D7
S11311F00E947009BE01CF01F9012F913F91CF9157
S1131200DF910895689401C0E8948F929F92CF93E0
S1131210DF930E941009DF91CF919F908F900895E2
S113122088249924F401E401B0E49F93AA279A1531
S11312308B049C04ED05FE05CF05D007A10798F4A7
S1131240AD2FDC2FCF2FFE2FE92D982C892E982F30
S1131250872F762F652F542F432F322F2227B850F4
S113126031F7BF9127C01B2EBF91BB27220F331F1D
S1131270441F551F661F771F881F991F881C991CC0
S1131280EE1FFF1FCC1FDD1FAA1FBB1F8A149B0468
S1131290EC05FD05CE05DF05A007B10748F08A1867
S11312A09B08EC09FD09CE09DF09A00BB10B2160F5
S11312B01A94E1F62EF49401AF01BE01CD01000CA5
S11312C00895A29FB001B39FC001A39F700D811D1B
S11312D01124911DB29F700D811D1124911D08953B
S11312E00E946109460F571FC81FD91F08F4319681
S10912F00895F894FFCFFD
S9030000FC
