:100000000C9400010C9426010C9426010C942601FA
:100010000C9426010C9426010C9426010C942601C4
:100020000C9426010C9426010C9426010C942601B4
:100030000C9426010C9426010C94F50A0C942601CC
:100040000C9426010C9426010C9426010C94260194
:100050000C940C0B0C9426010C9426010C94260194
:100060000C9426010C9426010C9426010C94260174
:100070000C9426010C9426010C9426010C94260164
:100080000C9426010C9426010C9426010C94260154
:100090000C9426010C9426010C9426010C94260144
:1000A0000C9426010C9426010C9426010C94260134
:1000B0000C9426010C9426010C9426010C94260124
:1000C0000C9426010C9426010C9426010C94260114
:1000D0000C9426010C9426010C9426010C94260104
:1000E0000C9426010C9426010C9426010C942601F4
:1000F0000C9426010C9426010C9426010C942601E4
:100100000C9426010C9426010C9426010C942601D3
:100110000C9426010C9426010C9426010C942601C3
:100120000C9426010C9426010C9426010C942601B3
:100130000C9426010C9426010C9426010C942601A3
:100140000C9426010C9426010C9426010C94260193
:100150000C9426010C9426010C9426010C94260183
:100160000C9426010C9426010C9426010C94260173
:100170000C9426010C9426010C9426010C94260163
:100180000C9426010C9426010C9426010C94260153
:100190000C9426010C9426010C9426010C94260143
:1001A0000C9426010C9426010C9426010C94260133
:1001B0000C9426010C9426010C9426010C94260123
:1001C0000C9426010C9426010C9426010C94260113
:1001D0000C9426010C9426010C9426010C94260103
:1001E0000C9426010C9426010C9426010C942601F3
:1001F0000C9426010C9426010C9426010C942801E1
:1002000011241FBECFEFCDBFDFE3DEBF00E00CBF88
:1002100018BE19BE1ABE1BBE12E2A0E0B0E2ECE4AA
:10022000FEE100E00BBF02C007900D92A832B107BB
:10023000D9F71BBE22E2A8E2B2E201C01D92AA3B9E
:10024000B207E1F70E9400080C94240F0C94000000
:10025000E0EAFAE0918195FFFDCF8093A00A08952E
:1002600082E080935000E0E5F0E0818181FFFDCFE6
:1002700088ED84BF81E0809340000895E0E4F6E0DB
:1002800080EB818380E4828381ED8093C0080895B0
:1002900088E080938106E0EAFAE0848383E0858346
:1002A000089588E080936106E0EAF9E083E88683B8
:1002B00017828CE0848383E085830895E0E4F8E08E
:1002C00085E0808383E0868388E893E186A397A313
:1002D0000895E0E0F8E0108283E0868382E49FE006
:1002E00086A397A30895E0E0F2E084EA818380E2A8
:1002F000828387E0848381E080A798E091A7808350
:100300000895E0EAF0E08281876082830895E0EA60
:10031000F9E0918195FFFDCF8093A0090895809326
:10032000C308E0ECF8E082818823ECF78091C308F1
:10033000089580E00E948F010895CF93DF93C62F28
:10034000D72F0E948F018D2F0E948F018C2F0E942A
:100350008F01DF91CF9108951F93CF93DF93C0E476
:10036000D6E010E11D831E8385E00E948F010E946C
:1003700099011D83DF91CF911F9108950E94AC01D7
:1003800080FDFCCF08958F929F92AF92BF92EF9223
:10039000FF920F931F93CF93DF934B015C017A0180
:1003A000122F0E94BE01E0E4F6E080E1858386839F
:1003B00083E00E948F01C501B4010E949D01E70105
:1003C0001150012F10E00F5F1F4F0E0D1F1D0E94D7
:1003D00099018993C017D107D1F780E18093450631
:1003E000DF91CF911F910F91FF90EF90BF90AF9051
:1003F0009F908F900895CF93DF931F921F92CDB758
:10040000DEB722E0AE014F5F5F4F64E070E180E055
:1004100090E00E94C301898190E0982F88272A816B
:10042000820F911D80933122909332220F900F9072
:10043000DF91CF9108958F929F92AF92BF92EF92EA
:10044000FF920F931F93CF93DF9300D01F92CDB7EE
:10045000DEB78091312290913222880F991F880F48
:10046000991FA0E0B0E08A5F9F4EAF4FBF4F8093CF
:100470002B2290932C22A0932D22B0932E22809198
:100480002F2290913022892B09F4A2C08091312231
:1004900090913222892B09F49BC020912F22309118
:1004A000302280913122909132222817390748F06A
:1004B0008091312290913222019780932F22909344
:1004C000302280912F2290913022892B09F480C014
:1004D00000E010E00F2EF6E08F2EF0E19F2EA12C11
:1004E000B12CF02D0F2EF4E1EF2EF0E2FF2EF02DC7
:1004F00024E0AE014F5F5F4FC501B4010E94C3010C
:1005000024E0820E911CA11CB11C29813A81EB814F
:10051000FC8180912B2290912C22A0912D22B091D0
:100520002E22AC01BD014F0F511D611D711D822F87
:1005300090E0A0E0B0E0B82FAA2799278827840F81
:10054000951FA61FB71F432F50E060E070E0BA016F
:1005500055274427840F951FA61FB71F4E2F50E025
:1005600060E070E0762F652F542F4427840F951F8D
:10057000A61FB71F80932B2290932C22A0932D228D
:10058000B0932E2280912B2290912C22A0912D228B
:10059000B0912E221F92FF931F92EF931F923F93D1
:1005A0001F922F93BF93AF939F938F931F930F939C
:1005B000FF92EF920E943F0C0F5F1F4F80912F22FE
:1005C00090913022CDBFDEBF0817190708F490CFF5
:1005D00060912B2270912C2280912D2290912E22BD
:1005E00022E0AE014F5F5F4F0E94C30180912B223A
:1005F00090912C22A0912D22B0912E222A811F921F
:100600002F9329811F922F93BF93AF939F938F9323
:1006100084E590E29F938F930E943F0C80912B2260
:1006200090912C22A0912D22B0912E220296A11DF4
:10063000B11D2A81820F911DA11DB11D498150E07C
:1006400060E070E0762F652F542F4427840F951FAC
:10065000A61FB71F80932B2290932C22A0932D22AC
:10066000B0932E2280912B2290912C22A0912D22AA
:10067000B0912E22BF93AF939F938F938CE890E21B
:100680009F938F930E943F0CCDBFDEBF2496CDBFBA
:10069000DEBFDF91CF911F910F91FF90EF90BF9040
:1006A000AF909F908F900895CF93DF931F921F92EA
:1006B000CDB7DEB780912B2290912C22A0912D22D4
:1006C000B0912E22BC01CD01665F7F4F8F4F9F4FAF
:1006D00022E0AE014F5F5F4F0E94C30180912B2249
:1006E00090912C22A0912D22B0912E222A811F922E
:1006F0002F9329811F922F930A96A11DB11DBF939D
:10070000AF939F938F938FEA90E29F938F930E9472
:100710003F0C8A8180932A22CDBFDEBF0F900F90BD
:10072000DF91CF910895CF93DF931F921F92CDB7A2
:10073000DEB780912B2290912C22A0912D22B09196
:100740002E22BC01CD01645F7F4F8F4F9F4F22E06F
:10075000AE014F5F5F4F0E94C30129813A81822F12
:1007600090E0982F8827830F911D809333229093D8
:100770003422809133229091342299237CF4822F69
:10078000992781950CF49095AC01349FC001359F59
:10079000900D112480933322909334224091332280
:1007A0005091342280912B2290912C22A0912D22C5
:1007B000B0912E225F934F931F923F931F922F93DE
:1007C0000C96A11DB11DBF93AF939F938F938AED9C
:1007D00090E29F938F930E943F0CCDBFDEBF0F909E
:1007E0000F90DF91CF9108952F923F924F925F9299
:1007F0006F927F928F929F92AF92BF92CF92DF9231
:10080000EF92FF920F931F93CF93DF93CDB7DEB795
:100810006297CDBFDEBF082F10E009871A871FE05F
:10082000819FF0011124EB5CFD4D1086118612862C
:1008300013864FE029853A85429FC001439F900D62
:100840001124BC016B5C7D4D2B014E0175E0870EC0
:10085000911C120188E0280E311C32019CE0690EC7
:10086000711C0EC20E9499018A83D2014D915D9143
:100870006D917C914F5F5F4F6F4F7F4FF2014083CF
:1008800051836283738388230CF011C20E94990103
:100890008B83D2014D915D916D917C914F5F5F4F44
:1008A0006F4F7F4FF20140835183628373838823AC
:1008B0000CF0FDC10E9499018C83F201808191812D
:1008C000A281B3810196A11DB11D80839183A28372
:1008D000B383EDC1880F991FAA1FBB1F880F991FF3
:1008E000AA1FBB1F880F991FAA1FBB1F880F991F24
:1008F000AA1FBB1F880F991FAA1FBB1F880F991F14
:10090000AA1FBB1F880F991FAA1FBB1F219122235B
:100910004CF42F77820F911DA11DB11DE815F9052B
:10092000C9F60AC0AC01BD01420F511D611D711D08
:100930004D835E836F837887F10180819181A281ED
:10094000B3810D811E812F813885800F911FA21FD9
:10095000B31F80839183A283B3830E949901D30143
:100960008C93F20180819181A281B3810196A11DB6
:10097000B11D80839183A283B383D3018C91807F47
:10098000803941F08C91807F803821F08C91807F7C
:10099000803E01F50E9499019FE0E985FA859E9FBE
:1009A00080019F9F100D11240B5C1D4DD8011D96D9
:1009B0008C930E949901F801868780819181A281A0
:1009C000B3810296A11DB11D80839183A283B3835D
:1009D0008FEF98C1D3018C91807F803A21F08C9168
:1009E000807F803B81F40E9499010E949901F2016D
:1009F00080819181A281B3810296A11DB11D808366
:100A00009183A283B383D3018C91807F803C21F0BA
:100A10008C91807F803D79F40E949901F201808160
:100A20009181A281B3810196A11DB11D8083918323
:100A3000A283B38325C1D3018C918F3F09F020C1DC
:100A40000E9499018983F201408151816281738101
:100A50004F5F5F4F6F4F7F4F40835183628373833C
:100A60008F3209F44FC148F48A3020F4813008F401
:100A700025C116C0803291F0EAC0883509F4D2C091
:100A800030F48135E9F0843509F41AC1E0C08935C4
:100A900009F4CAC0873F09F4C9C0D9C012E011C126
:100AA0000E949901F20140815181628173814F5FFF
:100AB0005F4F6F4F7F4F4083518362837383C8C002
:100AC0000E9499010E949901082F89830E9499012F
:100AD000182F8A830E949901282F8B83802F90E002
:100AE000A0E0B0E0DC0199278827412F50E060E0CA
:100AF00070E0762F652F542F4427840F951FA61F73
:100B0000B71F820F911DA11DB11D8093AD2290933F
:100B1000AE22A093AF22B093B0228091AD229091EB
:100B2000AE22A091AF22B091B0228C019D0140E095
:100B300050E0BA018B871C872D873E874F87588BE3
:100B4000698B7A8BA12C0F2EF8E4BF2EF02D0F2E7F
:100B5000F8EECF2EF02DDD24D394E12CF12C00E023
:100B600010E02B853C854D855E8560E070E080E07F
:100B700090E00E94780B6894AA24A6F80F2EF2E465
:100B8000BF2EF02D0F2EFFE0CF2EF02DD12C0E9486
:100B9000D30B822F932FA42FB52F8093AD22909348
:100BA000AE22A093AF22B093B0226091AD2270919B
:100BB000AE228091AF229091B022209133223091C9
:100BC0003422032E000C440B550B0E94560BDA0105
:100BD000C901B695A79597958795B695A7959795C9
:100BE00087958093260890932708809126089091F6
:100BF00027089F938F93A7E0B1E2BF93AF930E9422
:100C00003F0CF20180819181A281B3810496A11DE4
:100C1000B11D80839183A283B3830F900F900F90B7
:100C20000F905EC015E04DC013E04BC0F201808113
:100C30009181A281B3810196A11DB11D8083918311
:100C4000A283B3830E949901873F81F749C080E066
:100C5000D2014D915D916D917C91480F511D611DA7
:100C6000711DF20140835183628373831FEF180F5C
:100C7000882331F00E949901812F11508111FACF00
:100C80001A821B821C820E9499018983D2014D9194
:100C90005D916D917C914F5F5F4F6F4F7F4FF20180
:100CA000408351836283738388230CF4DBCD2981D5
:100CB000222304F180E090E0DC0134CE11E001C099
:100CC00016E0F20180819181A281B381810F911D93
:100CD000A11DB11D80839183A283B3831150CACF1C
:100CE000F20180819181A281B38180839183A2836B
:100CF000B383C6CF822F8F7790E0A0E0B0E0FE01F3
:100D00003296E8CD6296CDBFDEBFDF91CF911F91C5
:100D10000F91FF90EF90DF90CF90BF90AF909F909A
:100D20008F907F906F905F904F903F902F9008959D
:100D3000EF92FF920F931F93CF93DF937C01C42F09
:100D4000D52F162F072F0E94BE01E0E4F6E080E1C8
:100D50008583868383E00E948F016C2F7D2F812FF6
:100D6000902F0E949D010F931F93DF93CF9321E15A
:100D700031E23F932F930E943F0CF70180810E9444
:100D8000F4030F900F900F900F900F900F908F3FE4
:100D900021F4F70180818F5F808380E18093450695
:100DA00080E0DF91CF911F910F91FF90EF90089518
:100DB0004F925F926F927F928F929F92AF92BF926B
:100DC000CF92DF92EF92FF920F931F93CF93DF9317
:100DD000CDB7DEB72597CDBFDEBF198240902B225D
:100DE00050902C2260902D2270902E2222E1420EF3
:100DF000511C611C711C80912A22882309F496C021
:100E0000E0E0912C0F2EFFE08F2EF02D0F2EFCE254
:100E1000AF2EF1E2BF2EF02D03E411E2899CD00148
:100E20001124AB5CBD4D1C961C928E9EF0011124CA
:100E3000EB5CFD4D1586168610821182128213829C
:100E400014821582168217827F926F925F924F9260
:100E5000BF92AF920E943F0C24E0AE014E5F5F4F05
:100E6000C301B2010E94C3012A813B814C815D8193
:100E7000C22ED12CE12CF12CFC2CEE24DD24CC2430
:100E8000832F90E0A0E0B0E0DC0199278827C80E0E
:100E9000D91EEA1EFB1ED701C601850F911DA11D9B
:100EA000B11DC42ED12CE12CF12CFE2CED2CDC2C10
:100EB000CC24C80ED91EEA1EFB1EFF92EF92DF92D1
:100EC000CF921F925F931F924F931F923F931F9257
:100ED0002F931F930F930E943F0C34E0430E511C3D
:100EE000611C711CE9818E9EF0011124EB5CFD4DAB
:100EF0004482558266827782B301A201CE010196B7
:100F00000E94980684E0C80ED11CE11CF11C4C0C18
:100F10005D1C6E1C7F1C939480912A22CDBFDEBF86
:100F2000981620F4E981E83008F478CF8981259675
:100F3000CDBFDEBFDF91CF911F910F91FF90EF905A
:100F4000DF90CF90BF90AF909F908F907F906F90E9
:100F50005F904F9008950E94FB0180913122909103
:100F60003222880F991F880F991F8A5F9F4EA0E039
:100F7000B0E080932B2290932C22A0932D22B0934B
:100F80002E2280912B2290912C22A0912D22B09183
:100F90002E222091312230913222BF93AF939F9322
:100FA0008F933F932F9384E691E29F938F930E94B8
:100FB0003F0C8DB79EB708968DBF9EBF0895809356
:100FC0002F22909330220E941B020E9454030E9401
:100FD00093030E94D80680932A2280912A2280932C
:100FE000292280912A221F928F938FE891E29F936A
:100FF0008F930E943F0C0F900F900F900F900895C9
:10100000F8940E9430010E943E010E9448010E9413
:1010100051010E9481010E945E010E9469010E94AB
:101020007301789480E090E28093B6229093B72287
:1010300080EA91E20E94530C0E94AB0780E2809309
:1010400001068FEF9FEF80932F22909330220F2E77
:10105000F0E46F2EF6E07F2EF02D0F2EFFE02F2E06
:10106000F02D0F2EF9EA8F2EF1E29F2EF02D8091B8
:101070002822882309F45CC180912A22882309F45C
:1010800055C1E12CF12C0E94BE01E0E1D30115967F
:10109000EC931597F0E11696FC9383E00E948F0184
:1010A0002E9CF0012F9CF00D1124EB5CFD4D8481F2
:1010B0009581A681B78140815181628173818A01C6
:1010C0009B01080F191F2A1F3B1FC901B8010E946D
:1010D0009D012E9C80012F9C100D11240B5C1D4D39
:1010E000E8012C96580128E0A20EB11C68013EE0F0
:1010F000C30ED11C035F1F4F4E2C8881882309F437
:1011000079C0F50180819181A281B381892B8A2BDD
:101110008B2B09F06FC0D6012C91F801908188814A
:101120001F922F931F929F931F928F93FF92EF9284
:101130009F928F920E943F0C5880D8013C908881EA
:101140000E948701F80180810E948701D6018C915D
:101150000E948701842D0E94F403EDB7FEB73A96F2
:10116000EDBFFEBF882309F445C08F3291F4FF9292
:10117000EF92A6ECB1E2BF93AF930E943F0C809137
:1011800029228150809329220F900F900F900F9069
:1011900031C0852D807F803909F0AFCF8881807F75
:1011A000803809F0AACFF50180819181A281B381B5
:1011B000892B8A2B8B2B09F0A0CFD8018C91381268
:1011C0009CCF842D0E94F4038823A1F08F3209F074
:1011D00094CFFF92EF92A6ECB1E2BF93AF930E943F
:1011E0003F0C809129228150809329220F900F90EB
:1011F0000F900F90E0E1D3011596EC932E9CF00137
:101200002F9CF00D1124EB5CFD4D80859185A2850E
:10121000B385892B8A2B8B2B91F02E9CF0012F9C70
:10122000F00D1124EB5CFD4D80859185A285B38581
:101230000197A109B10980879187A287B38780911F
:101240002922811169C0A0E0B8E01C928CEF0E94B5
:101250008701E0E0F8E010828091B32286958695C0
:1012600083708130D9F480912F22909130220E9496
:10127000DF078AEF0E94870180912F229091302210
:10128000892F0E94870180912F22909130220E9405
:10129000870183E0A0E0B8E08C933EC08091B32248
:1012A000869586958370C1F580912F22909130228A
:1012B000019680932F229093302220912F223091FB
:1012C000302280913122909132222817390720F064
:1012D00010922F22109230228CEF0E948701E0E0C2
:1012E000F8E0108280912F22909130220E94DF0737
:1012F0008AEF0E94870180912F2290913022892FBE
:101300000E94870180912F22909130220E948701B4
:1013100083E0A0E0B8E08C93BFEFEB1AFB0A80916A
:101320002A2290E0E816F90608F4ADCE10922822A1
:101330008091B222843608F44CC08091B32286FD9D
:10134000BDC088ED91E20E94530C8091B3228E7F44
:101350008093B3228091B32280648093B3228091E2
:10136000B322869586958370823031F48091B322C2
:10137000837F8093B32222C08091B3228695869585
:101380008370813059F48091B322837F8093B3229C
:101390008091B32288608093B32210C08091B322E1
:1013A00086958695837051F48091B322837F8093D4
:1013B000B3228091B32284608093B3228DEF0E9488
:1013C00087018091B3228695869583700E9487015C
:1013D00075C08091B222863050F08091B12284365F
:1013E00030F48091B32281608093B32267C08091F2
:1013F000B222811163C08091B32280FF55C08091D9
:10140000B32286FD51C08091B32288238CF48FEEE5
:1014100091E20E94530C8091B3228F778093B32284
:101420008BEF0E94870183E0E0E0F8E080833CC01E
:101430008EEF91E20E94530C80912F2290913022E6
:10144000019680932F229093302220912F22309169
:10145000302280913122909132222817390720F0D2
:1014600010922F22109230228CEF0E948701A0E070
:10147000B8E01C9280912F22909130220E94DF07C9
:101480008AEF0E94870180912F2290913022892F2C
:101490000E94870180912F22909130220E94870123
:1014A00083E0E0E0F8E080838091B3228E7F809338
:1014B000B3228091B3228F7B8093B3228091B1229B
:1014C0008436D0F08091B32288230CF4D0CD8CE008
:1014D00092E20E94530C8091B32280688093B322E1
:1014E0008091B3228D7F8093B3228CEF0E9487017D
:1014F000A0E0B8E01C92BBCD8091B122863050F0C4
:101500008091B122843630F48091B322826080933E
:10151000B322ADCD8091B1228111A9CD8091B322AA
:1015200081FF5DC08091B32288238CF48FEE91E21D
:101530000E94530C8091B3228F778093B3228BEF5C
:101540000E94870183E0E0E0F8E0808348C08DE1FD
:1015500092E20E94530C80912F2290913022892B8D
:1015600059F020912F223091302280913122909198
:1015700032222817390750F080913122909132227F
:10158000019780932F229093302209C080912F22BF
:1015900090913022019780932F22909330228CEFEC
:1015A0000E948701A0E0B8E01C9280912F229091C8
:1015B00030220E94DF078AEF0E94870180912F224C
:1015C00090913022892F0E94870180912F22909143
:1015D00030220E94870183E0E0E0F8E08083809180
:1015E000B3228D7F8093B32242CD1F920F920FB60C
:1015F0000F92112408B60F9218BE8F9380E2809349
:1016000007068FEF809328228F910F9008BE0F90CE
:101610000FBE0F901F9018951F920F920FB60F924A
:10162000112408B60F9218BE0BB60F921BBE8F93F3
:101630009F93EF93FF93E0E0F2E080A5806880A79E
:1016400080A58823ECF380912C0290912D02982F95
:101650008957813860F48091B2228F3F29F08091C0
:10166000B2228F5F8093B2221092B12212C09A3FB1
:1016700060F08091B1228F3F29F08091B1228F5F7D
:101680008093B1221092B22204C01092B222109222
:10169000B122FF91EF919F918F910F900BBE0F9010
:1016A00008BE0F900FBE0F901F901895A1E21A2E42
:1016B000AA1BBB1BFD010DC0AA1FBB1FEE1FFF1FF6
:1016C000A217B307E407F50720F0A21BB30BE40B46
:1016D000F50B661F771F881F991F1A9469F760958D
:1016E0007095809590959B01AC01BD01CF01089547
:1016F000DF93CF931F930F939A9DF02D219FF00DB1
:101700008B9DF00D8A9DE02DF10D039FF00D029F42
:10171000E00DF11D4E9DE00DF11D5E9DF00D4F9D04
:10172000F00D7F936F93BF92AF925F934F93D5016C
:101730000E94300C8B01AC01D7010E94300CEB01F0
:10174000E80FF91FD6010E94C80B2F913F91D601D7
:101750000E94300CC60FD71FE81FF91FAF91BF9131
:101760000E94C80B2F913F910E94300CC60FD71FCB
:10177000E81FF91FD6010E94300CE60FF71F9801F1
:10178000BE01CF0111240F911F91CF91DF910895D8
:101790000E94300C460F571FC81FD91F08F43196FE
:1017A0000895689401C0E8948F929F92CF93DF933D
:1017B0000E94DF0BDF91CF919F908F900895882436
:1017C0009924F401E401B0E49F93AA279A158B04AD
:1017D0009C04ED05FE05CF05D007A10798F4AD2FB9
:1017E000DC2FCF2FFE2FE92D982C892E982F872FB5
:1017F000762F652F542F432F322F2227B85031F7E1
:10180000BF9127C01B2EBF91BB27220F331F441F40
:10181000551F661F771F881F991F881C991CEE1F74
:10182000FF1FCC1FDD1FAA1FBB1F8A149B04EC05E2
:10183000FD05CE05DF05A007B10748F08A189B0813
:10184000EC09FD09CE09DF09A00BB10B21601A9448
:10185000E1F62EF49401AF01BE01CD01000C089514
:10186000A29FB001B39FC001A39F700D811D1124E1
:10187000911DB29F700D811D1124911D0895CF936C
:10188000DF93CDB7DEB7AE014A5F5F4FFA016191DA
:101890007191AF018091B6229091B7220E94830C82
:1018A000DF91CF9108950F931F93CF93DF93E09132
:1018B000B622F091B722238121FF1BC08C01D0E01A
:1018C000C0E0F80181918F016091B6227091B7223A
:1018D000DB011896ED91FC911997882331F0199549
:1018E000892B79F3DFEFCFEFECCF8AE01995892BC5
:1018F00019F08FEF9FEF02C08D2F9C2FDF91CF91BA
:101900001F910F9108952F923F924F925F926F9285
:101910007F928F929F92AF92BF92CF92DF92EF927F
:10192000FF920F931F93CF93DF93CDB7DEB72C9722
:10193000CDBFDEBF7C016B018A01FC0116821782DC
:10194000838181FFBDC1CE0101964C01F7019381D6
:10195000F60193FD859193FF81916F01882309F42E
:10196000ABC1853239F493FD859193FF81916F016D
:10197000853229F4B70190E00E948E0EE7CF512CFA
:10198000312C20E02032A0F48B3269F030F4803228
:1019900059F0833269F420612CC08D3239F08033E4
:1019A00039F4216026C02260246023C0286021C051
:1019B00027FD27C030ED380F3A3078F426FF06C0F7
:1019C000FAE05F9E300D1124532E13C08AE0389E3A
:1019D000300D1124332E20620CC08E3221F426FDEE
:1019E0006BC1206406C08C3611F4206802C08836B2
:1019F00041F4F60193FD859193FF81916F0181116F
:101A0000C1CF982F9F7D9554933028F40C5F1F4FC2
:101A1000FFE3F9830DC0833631F0833771F08335EE
:101A200009F05BC022C0F801808189830E5F1F4FDF
:101A300044244394512C540115C03801F2E06F0E38
:101A4000711CF801A080B18026FF03C0652D70E0F5
:101A500002C06FEF7FEFC5012C870E94830E2C011F
:101A600083012C852F77222E17C03801F2E06F0EEC
:101A7000711CF801A080B18026FF03C0652D70E0C5
:101A800002C06FEF7FEFC5012C870E94780E2C01FA
:101A90002C852068222E830123FC1BC0832D90E01F
:101AA00048165906B0F4B70180E290E00E948E0E0D
:101AB0003A94F4CFF50127FC859127FE81915F01CF
:101AC000B70190E00E948E0E31103A94F1E04F1A67
:101AD00051084114510471F7E5C0843611F089367C
:101AE00039F5F80127FF07C06081718182819381F8
:101AF0000C5F1F4F08C060817181072E000C880B9E
:101B0000990B0E5F1F4F2F76722E97FF09C090958D
:101B10008095709561957F4F8F4F9F4F2068722EF3
:101B20002AE030E0A4010E94C60EA82EA81844C0E6
:101B3000853729F42F7EB22E2AE030E025C0F22F1F
:101B4000F97FBF2E8F36C1F018F4883579F0B4C014
:101B5000803719F0883721F0AFC02F2F2061B22EC7
:101B6000B4FE0DC08B2D8460B82E09C024FF0AC0BE
:101B70009F2F9660B92E06C028E030E005C020E116
:101B800030E002C020E132E0F801B7FE07C060811A
:101B90007181828193810C5F1F4F06C060817181CA
:101BA00080E090E00E5F1F4FA4010E94C60EA82E99
:101BB000A818FB2DFF777F2E76FE0BC0372D3E7FBA
:101BC000A51450F474FE0AC072FC08C0372D3E7E86
:101BD00005C0BA2C372D03C0BA2C01C0B52C34FF78
:101BE0000DC0FE01EA0DF11D8081803311F4397EB4
:101BF00009C032FF06C0B394B39404C0832F867823
:101C000009F0B39433FD13C030FF06C05A2CB3144F
:101C100018F4530C5B18B32CB31468F4B70180E2CA
:101C200090E03C870E948E0EB3943C85F5CFB314B0
:101C300010F43B1801C0312C34FF12C0B70180E30F
:101C400090E03C870E948E0E3C8532FF17C031FD2C
:101C500003C088E790E002C088E590E0B7010CC0BF
:101C6000832F867859F031FF02C08BE201C080E2F9
:101C700037FD8DE2B70190E00E948E0EA51438F476
:101C8000B70180E390E00E948E0E5A94F7CFAA9499
:101C9000F401EA0DF11D8081B70190E00E948E0EE3
:101CA000A110F5CF332009F451CEB70180E290E0C6
:101CB0000E948E0E3A94F6CFF7018681978102C07A
:101CC0008FEF9FEF2C96CDBFDEBFDF91CF911F919D
:101CD0000F91FF90EF90DF90CF90BF90AF909F90CB
:101CE0008F907F906F905F904F903F902F900895CE
:101CF000FC010590615070400110D8F780959095D7
:101D00008E0F9F1F0895FC016150704001900110DB
:101D1000D8F7809590958E0F9F1F08950F931F936E
:101D2000CF93DF93FB01238121FD03C08FEF9FEF52
:101D300028C022FF16C04681578124813581421771
:101D4000530744F4A081B1819D012F5F3F4F208351
:101D500031838C93268137812F5F3F4F26833783D2
:101D600010C0EB01092F182F0084F185E02D199583
:101D7000892BE1F68E819F8101968E839F83812F2F
:101D8000902FDF91CF911F910F910895FA01AA270B
:101D9000283051F1203181F1E8946F936E7F6E5FAE
:101DA0007F4F8F4F9F4FAF4FB1E03ED0B4E03CD05C
:101DB000670F781F891F9A1FA11D680F791F8A1F3F
:101DC000911DA11D6A0F711D811D911DA11D20D0A6
:101DD00009F468943F912AE0269F11243019305D60
:101DE0003193DEF6CF010895462F4770405D419351
:101DF000B3E00FD0C9F7F6CF462F4F70405D4A339E
:101E000018F0495D31FD4052419302D0A9F7EACF65
:101E1000B4E0A6959795879577956795BA95C9F794
:101E200000976105710508959B01AC010A2E069487
:101E30005795479537952795BA95C9F7620F731F40
:0C1E4000841F951FA01D0895F894FFCF8B
:101E4C000000000200000000280100000000253006
:101E5C0032782000496E6465783A202575204E65ED
:101E6C0077205F66696C65416464726573734F6655
:101E7C00667365742030782530386C782E202530C8
:101E8C0032782025303278202530327820253032B7
:101E9C00780D0A0052656164696E672066696C652D
:101EAC00206E616D65206C656E6774682066726F5C
:101EBC006D2030782530386C782E204C656E3A20A9
:101ECC002530327820253032780D0A004E65772087
:101EDC005F66696C65416464726573734F666673A3
:101EEC0065743A2030782530386C78090D0A005426
:101EFC007261636B20436F756E742046726F6D2038
:101F0C0030782530386C782C203078253032782C8D
:101F1C00203078253032780D0A004469766973696F
:101F2C006F6E2046726F6D2030782530386C782CAF
:101F3C00203078253032782C2030782530327820BB
:101F4C00282564290D0A005045523A2025750D0AA2
:101F5C00004E65787420747261636B2073746172C7
:101F6C00742030782530386C780D0A0074726163F7
:101F7C006B53746172743A2030782530386C782049
:101F8C000D0A006C656E3A202530327820253032EF
:101F9C0078202530327820253032782028256C7531
:101FAC00290D0A0046696C6520436F756E743A20E2
:101FBC0025752C205374617274696E6720416464BA
:101FCC00726573732030782530386C780D0A0055A3
:101FDC0073656420747261636B732025750D0A0040
:101FEC00737461727465640D00547261636B2025A7
:101FFC00752073656E642030782530327820257515
:10200C002025750D0A00456E64206F662074726180
:10201C00636B2025750D0A00557064617465206D25
:10202C0069646920706C6179206D6F64650D004383
:10203C006F6E74696E7565206D6964690D004D6F06
:10204C00766520466F72776172640D00506175730E
:10205C0065206D69646920706C61790D004D6F7637
:08206C0065204261636B0D0069
:00000001FF
