S0260000786D6567615F6D6964695F636F6E74726F6C65725F666C6173685F7370692E737265639B
S11300000C9400010C9426010C9426010C942601F6
S11300100C9426010C9426010C9426010C942601C0
S11300200C9426010C9426010C9426010C942601B0
S11300300C9426010C9426010C9435090C94260189
S11300400C9426010C9426010C9426010C94260190
S11300500C944C090C9426010C9426010C94260152
S11300600C9426010C9426010C9426010C94260170
S11300700C9426010C9426010C9426010C94260160
S11300800C9426010C9426010C9426010C94260150
S11300900C9426010C9426010C9426010C94260140
S11300A00C9426010C9426010C9426010C94260130
S11300B00C9426010C9426010C9426010C94260120
S11300C00C9426010C9426010C9426010C94260110
S11300D00C9426010C9426010C9426010C94260100
S11300E00C9426010C9426010C9426010C942601F0
S11300F00C9426010C9426010C9426010C942601E0
S11301000C9426010C9426010C9426010C942601CF
S11301100C9426010C9426010C9426010C942601BF
S11301200C9426010C9426010C9426010C942601AF
S11301300C9426010C9426010C9426010C9426019F
S11301400C9426010C9426010C9426010C9426018F
S11301500C9426010C9426010C9426010C9426017F
S11301600C9426010C9426010C9426010C9426016F
S11301700C9426010C9426010C9426010C9426015F
S11301800C9426010C9426010C9426010C9426014F
S11301900C9426010C9426010C9426010C9426013F
S11301A00C9426010C9426010C9426010C9426012F
S11301B00C9426010C9426010C9426010C9426011F
S11301C00C9426010C9426010C9426010C9426010F
S11301D00C9426010C9426010C9426010C942601FF
S11301E00C9426010C9426010C9426010C942601EF
S11301F00C9426010C9426010C9426010C942801DD
S113020011241FBECFEFCDBFDFE3DEBF00E00CBF84
S113021018BE19BE1ABE1BBE11E2A0E0B0E2EEE3A6
S1130220F9E100E00BBF02C007900D92A23EB107B6
S1130230D9F71BBE22E2A2EEB1E201C01D92A5379E
S1130240B207E1F70E9447060C949D0C0C94000041
S1130250E0EAFAE0918195FFFDCF8093A00A08952A
S113026082E080935000E0E5F0E0818181FFFDCFE2
S113027088ED84BF81E0809340000895E0E4F6E0D7
S113028080EB818380E4828381ED8093C0080895AC
S113029088E080938106E0EAFAE0848383E0858342
S11302A0089588E080936106E0EAF9E083E88683B4
S11302B017828CE0848383E085830895E0E4F8E08A
S11302C085E0808383E0868388E893E186A397A30F
S11302D00895E0E0F8E0108283E0868382E49FE002
S11302E086A397A30895E0E0F2E084EA818380E2A4
S11302F0828387E0848381E080A798E091A780834C
S11303000895E0EAF0E08281876082830895E0EA5C
S1130310F9E0918195FFFDCF8093A0090895809322
S1130320C308E0ECF8E082818823ECF78091C308ED
S1130330089580E00E948F010895CF93DF9300D049
S11303401F92CDB7DEB769837A838B839C838B81BD
S11303500E948F018A810E948F0189810E948F01EE
S11303602496CDBFDEBFDF91CF9108951F93CF9325
S1130370DF93C0E4D6E010E11D831E8385E00E9474
S11303808F010E9499011D83DF91CF911F910895E0
S11303900E94B60180FDFCCF0895CF92DF92EF92C8
S11303A0FF920F931F93CF936B017C018A01C22F9D
S11303B00E94C801E0E4F6E080E18583868383E05F
S11303C00E948F01C701B6010E949D01C1500E9485
S11303D09901F801EC0FF11D8083C111F7CF80E181
S11303E080934506CF911F910F91FF90EF90DF907E
S11303F0CF9008958CEE91E29F938F9384E190E2E5
S11304009F938F930E94B80922E04CEE51E264E07E
S113041070E180E090E00E94CD018091EC21909108
S1130420ED219F938F9380E390E29F938F930E949B
S1130430B8098DB79EB708968DBF9EBF08958F9259
S11304409F92AF92BF92EF92FF920F931F93CF931D
S1130450DF9300D000D0CDB7DEB78091EC2190912E
S1130460ED21880F991F880F991FA0E0B0E08A5FE3
S11304709F4EAF4FBF4F8093E6219093E721A09307
S1130480E821B093E9218091EA219091EB21892B15
S113049009F475C08091EC219091ED21892B09F428
S11304A06EC02091EA213091EB218091EC21909152
S11304B0ED212817390748F08091EC219091ED2126
S11304C001978093EA219093EB218091EA21909106
S11304D0EB21892B09F453C000E010E00F2EF6E065
S11304E08F2EF0E19F2EA12CB12CF02D0F2EF1E4D4
S11304F0EF2EF0E2FF2EF02D24E0AE014F5F5F4FB0
S1130500C501B4010E94CD014091E6215091E7213B
S11305106091E8217091E92189819A81AB81BC8144
S1130520840F951FA61FB71F8093E6219093E721A0
S1130530A093E821B093E9218091E6219091E721ED
S1130540A091E821B091E921BF93AF939F938F933A
S11305501F930F93FF92EF920E94B80924E0820E3A
S1130560911CA11CB11C0F5F1F4F8091EA21909137
S1130570EB21CDBFDEBF0817190708F4BDCF60918A
S1130580E6217091E7218091E8219091E92122E010
S1130590AE014B5F5F4F0E94CD018091E6219091A7
S11305A0E721A091E821B091E9212E812F932D819B
S11305B02F93BF93AF939F938F938CE690E29F9377
S11305C08F930E94B8098091E6219091E721A09130
S11305D0E821B091E9212D813E812E5F3F4F820FAA
S11305E0931FA11DB11D8093E6219093E721A09351
S11305F0E821B093E921CDBFDEBF2696CDBFDEBF93
S1130600DF91CF911F910F91FF90EF90BF90AF902A
S11306109F908F9008958091E6219091E721A09179
S1130620E821B091E921BC01CD01665F7F4F8F4F76
S11306309F4F22E044EE51E20E94CD012091E4213B
S11306403091E5218091E6219091E721A091E82164
S1130650B091E9213F932F930A96A11DB11DBF9339
S1130660AF939F938F938FE990E29F938F930E9410
S1130670B8098DB79EB708968DBF9EBF0895809127
S1130680E6219091E721A091E821B091E921BC01F4
S1130690CD01645F7F4F8F4F9F4F22E04EEE51E2BA
S11306A00E94CD018091EE219091EF21992324F4B1
S11306B01092EE211092EF212091EE213091EF2142
S11306C08091E6219091E721A091E821B091E92160
S11306D03F932F931F921F921F921F920C96A11D5E
S11306E0B11DBF93AF939F938F9382EC90E29F933E
S11306F08F930E94B8098DB79EB70C968DBF9EBF8D
S113070008952F923F924F925F926F927F928F92B1
S11307109F92AF92BF92CF92DF92EF92FF921F937C
S1130720CF93DF939FE0899FF0011124E051FE4DA8
S113073080809180A280B3801086118612861386F1
S1130740482E512CAFE08A9FE0011124C850DE4DA1
S11307500F2EF8E66F2EF2E27F2EF02D212C6894F6
S1130760332433F85DC1CC0CDD1CEE1CFF1CCC0C17
S1130770DD1CEE1CFF1CCC0CDD1CEE1CFF1CCC0C89
S1130780DD1CEE1CFF1CCC0CDD1CEE1CFF1CCC0C79
S1130790DD1CEE1CFF1CCC0CDD1CEE1CFF1C0E949F
S11307A099011F5F882344F48F77C80ED11CE11C84
S11307B0F11C1430C1F610C0488159816A817B81D3
S11307C0C40ED51EE61EF71EC80ED11CE11CF11C7A
S11307D0C882D982EA82FB8275016401C10ED11CF0
S11307E0E11CF11C0E949901182F46015701BFEF2B
S11307F08B1A9B0AAB0ABB0A982F907F807E8038A5
S113080011F0903ED1F48FE0849DE001859DD00DE0
S11308101124C051DE4D1C870E9499018D870E94CE
S113082099018E87E3E0CE0ED11CE11CF11CC88235
S1130830D982EA82FB828FEF05C1803A61F40E947B
S113084099010E94990146015701F3E08F0E911C12
S1130850A11CB11C0CC0803C51F40E9499014601BA
S1130860570182E0880E911CA11CB11CD9C01F3F06
S113087009F0D6C0750164019FEFC91AD90AE90AC3
S1130880F90A0E9499018F3209F4DCC048F48A30D5
S113089020F4813008F4C9C016C0803291F0AEC093
S11308A0883509F49BC030F48135B9F0843509F4F6
S11308B0BEC0A4C0893509F493C0873F09F492C02F
S11308C09DC082E0B5C00E94990175016401A2E057
S11308D0CA0ED11CE11CF11C92C00E949901109215
S11308E068221092692210926A2210926B220E944E
S11308F09901F30182830E949901D30111968C938B
S11309000E949901F3018083809168229091692269
S1130910A0916A22B0916B22BF93AF939F938F9360
S1130920AFEEB0E2BF93AF930E94B8098091682202
S113093090916922A0916A22B0916B22880F991F2D
S1130940AA1FBB1F880F991FAA1FBB1F880F991FBF
S1130950AA1FBB1F880F991FAA1FBB1F880F991FAF
S1130960AA1FBB1F8093682290936922A0936A22D6
S1130970B0936B22609168227091692280916A22FF
S113098090916B222091EE213091EF21032E000CE7
S1130990440B550B0E949609DA01C901B695A79537
S11309A097958795B695A79597958795F10186A311
S11309B097A386A197A19F938F93ACEFB0E2BF93C7
S11309C0AF930E94B809F5E08F0E911CA11CB11CD5
S11309D08DB79EB70A968DBF9EBF22C085E028C002
S11309E083E026C0460157019FEF891A990AA90A94
S11309F0B90A0E949901873FB9F712C080E0460105
S1130A005701880E911CA11CB11CFF24FA94F80E06
S1130A10882331F00E9499018F2DFA948111FACF25
S1130A2010E0C12CD12C76019ECE81E001C086E07D
S1130A3046015701880E911CA11CB11CFF24FA9495
S1130A40F80EE8CFDF91CF911F91FF90EF90DF90E8
S1130A50CF90BF90AF909F908F907F906F905F905A
S1130A604F903F902F9008954F925F926F927F9294
S1130A708F929F92AF92BF92CF92DF92EF92FF92AA
S1130A800F931F93CF93DF9300D01F92CDB7DEB7A0
S1130A90C090E621D090E721E090E821F090E92190
S1130AA022E1C20ED11CE11CF11C19821A821B82A4
S1130AB01C828091E4219091E521892B09F475C071
S1130AC0712C512C0F2EFFE04F2EF02D00E416E078
S1130AD06894662464F80F2EF6E0AF2EF1E2BF2E80
S1130AE0F02D479CC0011124FC01E051FE4D4F0143
S1130AF0148615861686108211821282138214823D
S1130B001582168217820E94C801F80165826682E6
S1130B1083E00E948F01C701B6010E949D01FF92EC
S1130B20EF92DF92CF92BF92AF920E94B8090E94D7
S1130B3099018C830E9499018B830E9499018A8375
S1130B400E9499018983F4E0CF0ED11CE11CF11CB1
S1130B50F401C482D582E682F782872D0E94810344
S1130B600F900F900F900F900F900F908F3F09F4FC
S1130B707394F801658289819A81AB81BC81049662
S1130B80A11DB11DC80ED91EEA1EFB1E53948091EF
S1130B90E4219091E521252D30E02817390730F420
S1130BA0F7E0F71508F09DCF01C0712C872D24962E
S1130BB0CDBFDEBFDF91CF911F910F91FF90EF90DA
S1130BC0DF90CF90BF90AF909F908F907F906F9069
S1130BD05F904F9008950E94FA018091EC219091CA
S1130BE0ED21880F991F880F991F8A5F9F4EA0E0FF
S1130BF0B0E08093E6219093E721A093E821B0939D
S1130C00E9218091E6219091E721A091E821B0911A
S1130C10E9212091EC213091ED21BF93AF939F9373
S1130C208F933F932F938DE191E29F938F930E9433
S1130C30B8098DB79EB708968DBF9EBF089580935F
S1130C40EA219093EB210E941F020E940B030E9451
S1130C503F030E94340590E08093E4219093E521C2
S1130C608091E4219091E5218093E3218091E42116
S1130C709091E5219F938F9388E491E29F938F93C2
S1130C800E94B8090F900F900F900F900895F89458
S1130C900E9430010E943E010E9448010E945101BD
S1130CA00E9481010E945E010E9469010E947301F9
S1130CB0789480E090E2809371229093722289E587
S1130CC091E20E94CC090E94EB0580E28093010628
S1130CD08FEF9FEF8093EA219093EB210F2EF0E4A6
S1130CE06F2EF6E07F2EF02D0F2EFFE02F2EF02D2D
S1130CF00F2EF2E68F2EF1E29F2EF02D8091E2214D
S1130D00882309F45BC18091E4219091E521892B2A
S1130D1009F452C1E12CF12C0E94C801E0E1D30195
S1130D201596EC931597F0E11696FC9383E00E94D8
S1130D308F012E9CF0012F9CF00D1124E051FE4DEB
S1130D4084819581A681B7814081518162817381BB
S1130D508A019B01080F191F2A1F3B1FC901B801F3
S1130D600E949D012E9C80012F9C100D1124005186
S1130D701E4DE8012C96580128E0A20EB11C680112
S1130D803EE0C30ED11C035F1F4F4E2C8881882385
S1130D9009F479C0F50180819181A281B381892B05
S1130DA08A2B8B2B09F06FC0D6012C91F80190810E
S1130DB088811F922F931F929F931F928F93FF926C
S1130DC0EF929F928F920E94B8095880D8013C906C
S1130DD088810E948701F80180810E948701D601E1
S1130DE08C910E948701842D0E948103EDB7FEB788
S1130DF03A96EDBFFEBF882309F445C08F3291F4C3
S1130E00FF92EF92AFE7B1E2BF93AF930E94B809AC
S1130E108091E32181508093E3210F900F900F90F4
S1130E200F9031C0852D807F803909F0AFCF888144
S1130E30807F803809F0AACFF50180819181A28159
S1130E40B381892B8A2B8B2B09F0A0CFD8018C91ED
S1130E5038129CCF842D0E9481038823A1F08F3205
S1130E6009F094CFFF92EF92AFE7B1E2BF93AF9353
S1130E700E94B8098091E32181508093E3210F906F
S1130E800F900F900F90E0E1D3011596EC932E9CF8
S1130E90F0012F9CF00D1124E051FE4D80859185C9
S1130EA0A285B385892B8A2B8B2B91F02E9CF00184
S1130EB02F9CF00D1124E051FE4D80859185A28573
S1130EC0B3850197A109B10980879187A287B38768
S1130ED08091E321811165C0A0E0B8E01C928CEF01
S1130EE00E948701E0E0F8E0108280916E228C700D
S1130EF08430D9F48091EA219091EB210E941F065D
S1130F008AEF0E9487018091EA219091EB21892F39
S1130F100E9487018091EA219091EB210E94870130
S1130F2083E0A0E0B8E08C933CC080916E228C708A
S1130F30C1F58091EA219091EB2101968093EA21F9
S1130F409093EB212091EA213091EB218091EC21C7
S1130F509091ED212817390720F01092EA21109280
S1130F60EB218CEF0E948701E0E0F8E01082809191
S1130F70EA219091EB210E941F068AEF0E948701CB
S1130F808091EA219091EB21892F0E948701809121
S1130F90EA219091EB210E94870183E0A0E0B8E070
S1130FA08C93BFEFEB1AFB0A8091E4219091E52129
S1130FB0E816F90608F4B0CE1092E22180916D2271
S1130FC0843608F446C080916E2286FDB7C081E95C
S1130FD091E20E94CC0980916E228E7F80936E22D2
S1130FE080916E22806480936E2280916E228C7038
S1130FF0883031F480916E22837F80936E221EC0EC
S113100080916E228C70843059F480916E22837F9B
S113101080936E2280916E22886080936E220EC02F
S113102080916E228C7051F480916E22837F809324
S11310306E2280916E22846080936E228DEF0E94D6
S1131040870180916E228695869583700E94870120
S113105075C080916D22863050F080916C22843668
S113106030F480916E22816080936E2267C08091FB
S11310706D22811163C080916E2280FF55C08091E2
S11310806E2286FD51C080916E2288238CF488EAFA
S113109091E20E94CC0980916E228F7780936E2218
S11310A08BEF0E94870183E0E0E0F8E080833CC09E
S11310B087EB91E20E94CC098091EA219091EB2187
S11310C001968093EA219093EB212091EA213091BB
S11310D0EB218091EC219091ED212817390720F024
S11310E01092EA211092EB218CEF0E948701A0E07C
S11310F0B8E01C928091EA219091EB210E941F0696
S11311008AEF0E9487018091EA219091EB21892F37
S11311100E9487018091EA219091EB210E9487012E
S113112083E0E0E0F8E0808380916E228E7F8093FC
S11311306E2280916E228F7B80936E2280916C222E
S11311408436D0F080916E2288230CF4D7CD85ECC0
S113115091E20E94CC0980916E22806880936E2275
S113116080916E228D7F80936E228CEF0E94870186
S1131170A0E0B8E01C92C2CD80916C22863050F081
S113118080916C22843630F480916E228260809348
S11311906E22B4CD80916C228111B0CD80916E22EB
S11311A081FF5DC080916E2288238CF488EA91E2ED
S11311B00E94CC0980916E228F7780936E228BEFF0
S11311C00E94870183E0E0E0F8E0808348C086ED78
S11311D091E20E94CC098091EA219091EB21892B24
S11311E059F02091EA213091EB218091EC219091EA
S11311F0ED212817390750F08091EC219091ED21D1
S113120001978093EA219093EB2109C08091EA2110
S11312109091EB2101978093EA219093EB218CEF3D
S11312200E948701A0E0B8E01C928091EA2190918D
S1131230EB210E941F068AEF0E9487018091EA2118
S11312409091EB21892F0E9487018091EA2190914E
S1131250EB210E94870183E0E0E0F8E08083809145
S11312606E228D7F80936E2249CD1F920F920FB60E
S11312700F92112408B60F9218BE8F9380E28093C8
S113128007068FEF8093E2218F910F9008BE0F9095
S11312900FBE0F901F9018951F920F920FB60F92CA
S11312A0112408B60F9218BE0BB60F921BBE8F9373
S11312B09F93EF93FF93E0E0F2E080A5806880A71E
S11312C080A58823ECF380912C0290912D02982F15
S11312D08957813860F480916D228F3F29F0809185
S11312E06D228F5F80936D2210926C2212C09A3F00
S11312F060F080916C228F3F29F080916C228F5F87
S113130080936C2210926D2204C010926D22109270
S11313106C22FF91EF919F918F910F900BBE0F90D4
S113132008BE0F900FBE0F901F901895A1E21A2EC1
S1131330AA1BBB1BFD010DC0AA1FBB1FEE1FFF1F75
S1131340A217B307E407F50720F0A21BB30BE40BC5
S1131350F50B661F771F881F991F1A9469F760950C
S11313607095809590959B01AC01BD01CF010895C6
S1131370CF93DF93CDB7DEB7AE014A5F5F4FFA017B
S113138061917191AF0180917122909172220E94BA
S1131390FC09DF91CF9108950F931F93CF93DF93AF
S11313A0E0917122F0917222238121FF1BC08C01F4
S11313B0D0E0C0E0F80181918F01609171227091B9
S11313C07222DB011896ED91FC911997882331F074
S11313D01995892B79F3DFEFCFEFECCF8AE01995DC
S11313E0892B19F08FEF9FEF02C08D2F9C2FDF9177
S11313F0CF911F910F9108952F923F924F925F9238
S11314006F927F928F929F92AF92BF92CF92DF9210
S1131410EF92FF920F931F93CF93DF93CDB7DEB775
S11314202C97CDBFDEBF7C016B018A01FC011682C3
S11314301782838181FFBDC1CE0101964C01F70162
S11314409381F60193FD859193FF81916F01882328
S113145009F4ABC1853239F493FD859193FF8191F1
S11314606F01853229F4B70190E00E94070CE7CFA1
S1131470512C312C20E02032A0F48B3269F030F46E
S1131480803259F0833269F420612CC08D3239F0F6
S1131490803339F4216026C02260246023C0286090
S11314A021C027FD27C030ED380F3A3078F426FFED
S11314B006C0FAE05F9E300D1124532E13C08AE05B
S11314C0389E300D1124332E20620CC08E3221F44C
S11314D026FD6BC1206406C08C3611F4206802C05E
S11314E0883641F4F60193FD859193FF81916F0154
S11314F08111C1CF982F9F7D9554933028F40C5FB0
S11315001F4FFFE3F9830DC0833631F0833771F049
S1131510833509F05BC022C0F801808189830E5FA6
S11315201F4F44244394512C540115C03801F2E058
S11315306F0E711CF801A080B18026FF03C0652DD9
S113154070E002C06FEF7FEFC5012C870E94FC0B97
S11315502C0183012C852F77222E17C03801F2E04D
S11315606F0E711CF801A080B18026FF03C0652DA9
S113157070E002C06FEF7FEFC5012C870E94F10B72
S11315802C012C852068222E830123FC1BC0832D73
S113159090E048165906B0F4B70180E290E00E944A
S11315A0070C3A94F4CFF50127FC859127FE81912D
S11315B05F01B70190E00E94070C31103A94F1E00A
S11315C04F1A51084114510471F7E5C0843611F0E3
S11315D0893639F5F80127FF07C06081718182815E
S11315E093810C5F1F4F08C060817181072E000C2E
S11315F0880B990B0E5F1F4F2F76722E97FF09C031
S113160090958095709561957F4F8F4F9F4F20687F
S1131610722E2AE030E0A4010E943F0CA82EA818E4
S113162044C0853729F42F7EB22E2AE030E025C04D
S1131630F22FF97FBF2E8F36C1F018F4883579F078
S1131640B4C0803719F0883721F0AFC02F2F206144
S1131650B22EB4FE0DC08B2D8460B82E09C024FFB9
S11316600AC09F2F9660B92E06C028E030E005C05E
S113167020E130E002C020E132E0F801B7FE07C00B
S113168060817181828193810C5F1F4F06C06081EC
S1131690718180E090E00E5F1F4FA4010E943F0C17
S11316A0A82EA818FB2DFF777F2E76FE0BC0372DB2
S11316B03E7FA51450F474FE0AC072FC08C0372D96
S11316C03E7E05C0BA2C372D03C0BA2C01C0B52C00
S11316D034FF0DC0FE01EA0DF11D8081803311F449
S11316E0397E09C032FF06C0B394B39404C0832F7B
S11316F0867809F0B39433FD13C030FF06C05A2C2A
S1131700B31418F4530C5B18B32CB31468F4B70176
S113171080E290E03C870E94070CB3943C85F5CFAF
S1131720B31410F43B1801C0312C34FF12C0B701BC
S113173080E390E03C870E94070C3C8532FF17C091
S113174031FD03C088E790E002C088E590E0B7016E
S11317500CC0832F867859F031FF02C08BE201C0A0
S113176080E237FD8DE2B70190E00E94070CA514DA
S113177038F4B70180E390E00E94070C5A94F7CF45
S1131780AA94F401EA0DF11D8081B70190E00E9452
S1131790070CA110F5CF332009F451CEB70180E234
S11317A090E00E94070C3A94F6CFF7018681978166
S11317B002C08FEF9FEF2C96CDBFDEBFDF91CF919C
S11317C01F910F91FF90EF90DF90CF90BF90AF905B
S11317D09F908F907F906F905F904F903F902F904D
S11317E00895FC010590615070400110D8F7809570
S11317F090958E0F9F1F0895FC01615070400190D9
S11318000110D8F7809590958E0F9F1F08950F9320
S11318101F93CF93DF93FB01238121FD03C08FEF3F
S11318209FEF28C022FF16C046815781248135814D
S11318304217530744F4A081B1819D012F5F3F4FAC
S1131840208331838C93268137812F5F3F4F2683FA
S1131850378310C0EB01092F182F0084F185E02D88
S11318601995892BE1F68E819F8101968E839F8342
S1131870812F902FDF91CF911F910F910895FA013D
S1131880AA27283051F1203181F1E8946F936E7FBB
S11318906E5F7F4F8F4F9F4FAF4FB1E03ED0B4E0AC
S11318A03CD0670F781F891F9A1FA11D680F791FED
S11318B08A1F911DA11D6A0F711D811D911DA11DFE
S11318C020D009F468943F912AE0269F112430190E
S11318D0305D3193DEF6CF010895462F4770405DA9
S11318E04193B3E00FD0C9F7F6CF462F4F70405D58
S11318F04A3318F0495D31FD4052419302D0A9F7B3
S1131900EACFB4E0A6959795879577956795BA95AC
S1131910C9F700976105710508959B01AC010A2E72
S113192006945795479537952795BA95C9F7620F49
S1111930731F841F951FA01D0895F894FFCF08
S113193E0000000200000000280100000000253015
S113194E32782000416464726573206F66205F668E
S113195E696C65436F756E7420253034780D0A00FA
S113196E46696C6520436F756E743A2025750D0AB1
S113197E00496E6465783A202575204E6577205FA0
S113198E66696C65416464726573734F66667365EC
S113199E742030782530386C780D0A0052656164F5
S11319AE696E672066696C65206E616D65206C6575
S11319BE6E6774682066726F6D2030782530386CCF
S11319CE782E204C656E3A20253034780D0A00545A
S11319DE7261636B20436F756E742046726F6D2057
S11319EE30782530386C782C203078253034780DCA
S11319FE0A004469766973696F6E2046726F6D20B2
S1131A0E30782530386C782C203078253032782C8C
S1131A1E2030782530327820282564290D0A005488
S1131A2E656D706F3A20256C750D0A005045523A5B
S1131A3E2025750D0A00747261636B5374617274A0
S1131A4E3A2030782530386C78200D0A0046696CBF
S1131A5E6520436F756E743A2025752C205374617E
S1131A6E7274696E67204164647265737320307892
S1131A7E2530386C780D0A005573656420747261D4
S1131A8E636B732025750D0A00737461727465643B
S1131A9E0D00547261636B2025752073656E64208E
S1131AAE3078253032782025752025750D0A0045AD
S1131ABE6E64206F6620747261636B2025750D0A47
S1131ACE00557064617465206D69646920706C6181
S1131ADE79206D6F64650D00436F6E74696E756564
S1131AEE206D6964690D004D6F766520466F7277BF
S1131AFE6172640D005061757365206D69646920AF
S1131B0E706C61790D004D6F7665204261636B0DCB
S1051B1E0000C1
S9030000FC
